:100000000C942A000C9434000C9434000C943400AA
:100010000C9434000C9434000C9434000C94340090
:100020000C9434000C9434000C9434000C94340080
:100030000C9434000C9434000C9434000C94340070
:100040000C9434000C9434000C9434000C94340060
:100050000C94340011241FBECFE5D4E0DEBFCDBF29
:100060000E9445000C945C000C94000090E497B949
:10007000379A97B1892B87B9379A369A3699FECF36
:1000800024B135B1822F932F08950F931F938FEFD3
:1000900087BB11E002E080E090E00E94360023E0A0
:1000A0008F3F920711F418BBF6CF855F9140873CD4
:0C00B000910588F708BBEFCFF894FFCF54
:00000001FF
